{
  "contractName": "ERC721MintableRoyaltyExtend",
  "abi": [
    {
      "inputs": [
        {
          "internalType": "string",
          "name": "name_",
          "type": "string"
        },
        {
          "internalType": "string",
          "name": "symbol_",
          "type": "string"
        },
        {
          "internalType": "string",
          "name": "contractURI_",
          "type": "string"
        }
      ],
      "stateMutability": "nonpayable",
      "type": "constructor"
    },
    {
      "inputs": [],
      "name": "ContractURIIsEmpty",
      "type": "error"
    },
    {
      "inputs": [],
      "name": "NameIsEmpty",
      "type": "error"
    },
    {
      "inputs": [],
      "name": "TokenURIIsEmpty",
      "type": "error"
    },
    {
      "anonymous": false,
      "inputs": [
        {
          "indexed": true,
          "internalType": "address",
          "name": "owner",
          "type": "address"
        },
        {
          "indexed": true,
          "internalType": "address",
          "name": "approved",
          "type": "address"
        },
        {
          "indexed": true,
          "internalType": "uint256",
          "name": "tokenId",
          "type": "uint256"
        }
      ],
      "name": "Approval",
      "type": "event"
    },
    {
      "anonymous": false,
      "inputs": [
        {
          "indexed": true,
          "internalType": "address",
          "name": "owner",
          "type": "address"
        },
        {
          "indexed": true,
          "internalType": "address",
          "name": "operator",
          "type": "address"
        },
        {
          "indexed": false,
          "internalType": "bool",
          "name": "approved",
          "type": "bool"
        }
      ],
      "name": "ApprovalForAll",
      "type": "event"
    },
    {
      "anonymous": false,
      "inputs": [
        {
          "indexed": false,
          "internalType": "address",
          "name": "contractAddress_",
          "type": "address"
        }
      ],
      "name": "ContractDeployed",
      "type": "event"
    },
    {
      "anonymous": false,
      "inputs": [
        {
          "indexed": true,
          "internalType": "address",
          "name": "previousOwner",
          "type": "address"
        },
        {
          "indexed": true,
          "internalType": "address",
          "name": "newOwner",
          "type": "address"
        }
      ],
      "name": "OwnershipTransferred",
      "type": "event"
    },
    {
      "anonymous": false,
      "inputs": [
        {
          "indexed": true,
          "internalType": "bytes32",
          "name": "role",
          "type": "bytes32"
        },
        {
          "indexed": true,
          "internalType": "bytes32",
          "name": "previousAdminRole",
          "type": "bytes32"
        },
        {
          "indexed": true,
          "internalType": "bytes32",
          "name": "newAdminRole",
          "type": "bytes32"
        }
      ],
      "name": "RoleAdminChanged",
      "type": "event"
    },
    {
      "anonymous": false,
      "inputs": [
        {
          "indexed": true,
          "internalType": "bytes32",
          "name": "role",
          "type": "bytes32"
        },
        {
          "indexed": true,
          "internalType": "address",
          "name": "account",
          "type": "address"
        },
        {
          "indexed": true,
          "internalType": "address",
          "name": "sender",
          "type": "address"
        }
      ],
      "name": "RoleGranted",
      "type": "event"
    },
    {
      "anonymous": false,
      "inputs": [
        {
          "indexed": true,
          "internalType": "bytes32",
          "name": "role",
          "type": "bytes32"
        },
        {
          "indexed": true,
          "internalType": "address",
          "name": "account",
          "type": "address"
        },
        {
          "indexed": true,
          "internalType": "address",
          "name": "sender",
          "type": "address"
        }
      ],
      "name": "RoleRevoked",
      "type": "event"
    },
    {
      "anonymous": false,
      "inputs": [
        {
          "indexed": true,
          "internalType": "address",
          "name": "from",
          "type": "address"
        },
        {
          "indexed": true,
          "internalType": "address",
          "name": "to",
          "type": "address"
        },
        {
          "indexed": true,
          "internalType": "uint256",
          "name": "tokenId",
          "type": "uint256"
        }
      ],
      "name": "Transfer",
      "type": "event"
    },
    {
      "inputs": [],
      "name": "DEFAULT_ADMIN_ROLE",
      "outputs": [
        {
          "internalType": "bytes32",
          "name": "",
          "type": "bytes32"
        }
      ],
      "stateMutability": "view",
      "type": "function"
    },
    {
      "inputs": [],
      "name": "MINTER_ROLE",
      "outputs": [
        {
          "internalType": "bytes32",
          "name": "",
          "type": "bytes32"
        }
      ],
      "stateMutability": "view",
      "type": "function"
    },
    {
      "inputs": [
        {
          "internalType": "address",
          "name": "to",
          "type": "address"
        },
        {
          "internalType": "uint256",
          "name": "tokenId",
          "type": "uint256"
        }
      ],
      "name": "approve",
      "outputs": [],
      "stateMutability": "nonpayable",
      "type": "function"
    },
    {
      "inputs": [
        {
          "internalType": "address",
          "name": "owner",
          "type": "address"
        }
      ],
      "name": "balanceOf",
      "outputs": [
        {
          "internalType": "uint256",
          "name": "",
          "type": "uint256"
        }
      ],
      "stateMutability": "view",
      "type": "function"
    },
    {
      "inputs": [
        {
          "internalType": "uint256",
          "name": "tokenId",
          "type": "uint256"
        }
      ],
      "name": "getApproved",
      "outputs": [
        {
          "internalType": "address",
          "name": "",
          "type": "address"
        }
      ],
      "stateMutability": "view",
      "type": "function"
    },
    {
      "inputs": [
        {
          "internalType": "bytes32",
          "name": "role",
          "type": "bytes32"
        }
      ],
      "name": "getRoleAdmin",
      "outputs": [
        {
          "internalType": "bytes32",
          "name": "",
          "type": "bytes32"
        }
      ],
      "stateMutability": "view",
      "type": "function"
    },
    {
      "inputs": [
        {
          "internalType": "bytes32",
          "name": "role",
          "type": "bytes32"
        },
        {
          "internalType": "address",
          "name": "account",
          "type": "address"
        }
      ],
      "name": "grantRole",
      "outputs": [],
      "stateMutability": "nonpayable",
      "type": "function"
    },
    {
      "inputs": [
        {
          "internalType": "bytes32",
          "name": "role",
          "type": "bytes32"
        },
        {
          "internalType": "address",
          "name": "account",
          "type": "address"
        }
      ],
      "name": "hasRole",
      "outputs": [
        {
          "internalType": "bool",
          "name": "",
          "type": "bool"
        }
      ],
      "stateMutability": "view",
      "type": "function"
    },
    {
      "inputs": [
        {
          "internalType": "address",
          "name": "owner",
          "type": "address"
        },
        {
          "internalType": "address",
          "name": "operator",
          "type": "address"
        }
      ],
      "name": "isApprovedForAll",
      "outputs": [
        {
          "internalType": "bool",
          "name": "",
          "type": "bool"
        }
      ],
      "stateMutability": "view",
      "type": "function"
    },
    {
      "inputs": [],
      "name": "name",
      "outputs": [
        {
          "internalType": "string",
          "name": "",
          "type": "string"
        }
      ],
      "stateMutability": "view",
      "type": "function"
    },
    {
      "inputs": [],
      "name": "owner",
      "outputs": [
        {
          "internalType": "address",
          "name": "",
          "type": "address"
        }
      ],
      "stateMutability": "view",
      "type": "function"
    },
    {
      "inputs": [
        {
          "internalType": "uint256",
          "name": "tokenId",
          "type": "uint256"
        }
      ],
      "name": "ownerOf",
      "outputs": [
        {
          "internalType": "address",
          "name": "",
          "type": "address"
        }
      ],
      "stateMutability": "view",
      "type": "function"
    },
    {
      "inputs": [],
      "name": "renounceOwnership",
      "outputs": [],
      "stateMutability": "nonpayable",
      "type": "function"
    },
    {
      "inputs": [
        {
          "internalType": "bytes32",
          "name": "role",
          "type": "bytes32"
        },
        {
          "internalType": "address",
          "name": "account",
          "type": "address"
        }
      ],
      "name": "renounceRole",
      "outputs": [],
      "stateMutability": "nonpayable",
      "type": "function"
    },
    {
      "inputs": [
        {
          "internalType": "bytes32",
          "name": "role",
          "type": "bytes32"
        },
        {
          "internalType": "address",
          "name": "account",
          "type": "address"
        }
      ],
      "name": "revokeRole",
      "outputs": [],
      "stateMutability": "nonpayable",
      "type": "function"
    },
    {
      "inputs": [
        {
          "internalType": "uint256",
          "name": "_tokenId",
          "type": "uint256"
        },
        {
          "internalType": "uint256",
          "name": "_salePrice",
          "type": "uint256"
        }
      ],
      "name": "royaltyInfo",
      "outputs": [
        {
          "internalType": "address",
          "name": "",
          "type": "address"
        },
        {
          "internalType": "uint256",
          "name": "",
          "type": "uint256"
        }
      ],
      "stateMutability": "view",
      "type": "function"
    },
    {
      "inputs": [
        {
          "internalType": "address",
          "name": "from",
          "type": "address"
        },
        {
          "internalType": "address",
          "name": "to",
          "type": "address"
        },
        {
          "internalType": "uint256",
          "name": "tokenId",
          "type": "uint256"
        }
      ],
      "name": "safeTransferFrom",
      "outputs": [],
      "stateMutability": "nonpayable",
      "type": "function"
    },
    {
      "inputs": [
        {
          "internalType": "address",
          "name": "from",
          "type": "address"
        },
        {
          "internalType": "address",
          "name": "to",
          "type": "address"
        },
        {
          "internalType": "uint256",
          "name": "tokenId",
          "type": "uint256"
        },
        {
          "internalType": "bytes",
          "name": "_data",
          "type": "bytes"
        }
      ],
      "name": "safeTransferFrom",
      "outputs": [],
      "stateMutability": "nonpayable",
      "type": "function"
    },
    {
      "inputs": [
        {
          "internalType": "address",
          "name": "operator",
          "type": "address"
        },
        {
          "internalType": "bool",
          "name": "approved",
          "type": "bool"
        }
      ],
      "name": "setApprovalForAll",
      "outputs": [],
      "stateMutability": "nonpayable",
      "type": "function"
    },
    {
      "inputs": [],
      "name": "symbol",
      "outputs": [
        {
          "internalType": "string",
          "name": "",
          "type": "string"
        }
      ],
      "stateMutability": "view",
      "type": "function"
    },
    {
      "inputs": [
        {
          "internalType": "uint256",
          "name": "tokenId",
          "type": "uint256"
        }
      ],
      "name": "tokenURI",
      "outputs": [
        {
          "internalType": "string",
          "name": "",
          "type": "string"
        }
      ],
      "stateMutability": "view",
      "type": "function"
    },
    {
      "inputs": [
        {
          "internalType": "address",
          "name": "from",
          "type": "address"
        },
        {
          "internalType": "address",
          "name": "to",
          "type": "address"
        },
        {
          "internalType": "uint256",
          "name": "tokenId",
          "type": "uint256"
        }
      ],
      "name": "transferFrom",
      "outputs": [],
      "stateMutability": "nonpayable",
      "type": "function"
    },
    {
      "inputs": [
        {
          "internalType": "address",
          "name": "newOwner",
          "type": "address"
        }
      ],
      "name": "transferOwnership",
      "outputs": [],
      "stateMutability": "nonpayable",
      "type": "function"
    },
    {
      "inputs": [
        {
          "internalType": "address",
          "name": "to_",
          "type": "address"
        },
        {
          "internalType": "string",
          "name": "tokenURI_",
          "type": "string"
        }
      ],
      "name": "mintWithTokenURI",
      "outputs": [
        {
          "internalType": "bool",
          "name": "",
          "type": "bool"
        }
      ],
      "stateMutability": "nonpayable",
      "type": "function"
    },
    {
      "inputs": [
        {
          "internalType": "address",
          "name": "receiver_",
          "type": "address"
        },
        {
          "internalType": "uint96",
          "name": "feeNumerator_",
          "type": "uint96"
        }
      ],
      "name": "setRoyalties",
      "outputs": [],
      "stateMutability": "nonpayable",
      "type": "function"
    },
    {
      "inputs": [],
      "name": "contractURI",
      "outputs": [
        {
          "internalType": "string",
          "name": "",
          "type": "string"
        }
      ],
      "stateMutability": "view",
      "type": "function"
    },
    {
      "inputs": [
        {
          "internalType": "uint256",
          "name": "tokenId_",
          "type": "uint256"
        },
        {
          "internalType": "address",
          "name": "receiver_",
          "type": "address"
        },
        {
          "internalType": "uint96",
          "name": "feeNumerator_",
          "type": "uint96"
        }
      ],
      "name": "setTokenRoyalty",
      "outputs": [],
      "stateMutability": "nonpayable",
      "type": "function"
    },
    {
      "inputs": [
        {
          "internalType": "string",
          "name": "contractURI_",
          "type": "string"
        }
      ],
      "name": "setContractURI",
      "outputs": [],
      "stateMutability": "nonpayable",
      "type": "function"
    },
    {
      "inputs": [
        {
          "internalType": "bytes4",
          "name": "interfaceId_",
          "type": "bytes4"
        }
      ],
      "name": "supportsInterface",
      "outputs": [
        {
          "internalType": "bool",
          "name": "",
          "type": "bool"
        }
      ],
      "stateMutability": "view",
      "type": "function"
    }
  ],
  "bytecode": "0x60806040523480156200001157600080fd5b5060405162004e7a38038062004e7a833981810160405281019062000037919062000601565b8282816000908051906020019062000051929190620003b4565b5080600190805190602001906200006a929190620003b4565b5050506200008d620000816200018960201b60201c565b6200019160201b60201c565b6001835111620000c9576040517fbeafaea000000000000000000000000000000000000000000000000000000000815260040160405180910390fd5b80600c9080519060200190620000e1929190620003b4565b50620001066000801b620000fa6200018960201b60201c565b6200025760201b60201c565b620001477f9f2df0fed2c77648de5860a4cc508cd0818c85b8b8a1ab4ceeef8d981c8956a66200013b6200018960201b60201c565b6200025760201b60201c565b7f8ffcdc15a283d706d38281f500270d8b5a656918f555de0913d7455e3e6bc1bf30604051620001789190620006ff565b60405180910390a150505062000780565b600033905090565b6000600a60009054906101000a900473ffffffffffffffffffffffffffffffffffffffff16905081600a60006101000a81548173ffffffffffffffffffffffffffffffffffffffff021916908373ffffffffffffffffffffffffffffffffffffffff1602179055508173ffffffffffffffffffffffffffffffffffffffff168173ffffffffffffffffffffffffffffffffffffffff167f8be0079c531659141344cd1fd0a4f28419497f9722a3daafe3b4186f6b6457e060405160405180910390a35050565b6200026982826200034960201b60201c565b620003455760016009600084815260200190815260200160002060000160008373ffffffffffffffffffffffffffffffffffffffff1673ffffffffffffffffffffffffffffffffffffffff16815260200190815260200160002060006101000a81548160ff021916908315150217905550620002ea6200018960201b60201c565b73ffffffffffffffffffffffffffffffffffffffff168173ffffffffffffffffffffffffffffffffffffffff16837f2f8788117e7eff1d82e926ec794901d17c78024a50270940304540a733656f0d60405160405180910390a45b5050565b60006009600084815260200190815260200160002060000160008373ffffffffffffffffffffffffffffffffffffffff1673ffffffffffffffffffffffffffffffffffffffff16815260200190815260200160002060009054906101000a900460ff16905092915050565b828054620003c2906200074b565b90600052602060002090601f016020900481019282620003e6576000855562000432565b82601f106200040157805160ff191683800117855562000432565b8280016001018555821562000432579182015b828111156200043157825182559160200191906001019062000414565b5b50905062000441919062000445565b5090565b5b808211156200046057600081600090555060010162000446565b5090565b6000604051905090565b600080fd5b600080fd5b600080fd5b600080fd5b6000601f19601f8301169050919050565b7f4e487b7100000000000000000000000000000000000000000000000000000000600052604160045260246000fd5b620004cd8262000482565b810181811067ffffffffffffffff82111715620004ef57620004ee62000493565b5b80604052505050565b60006200050462000464565b9050620005128282620004c2565b919050565b600067ffffffffffffffff82111562000535576200053462000493565b5b620005408262000482565b9050602081019050919050565b60005b838110156200056d57808201518184015260208101905062000550565b838111156200057d576000848401525b50505050565b60006200059a620005948462000517565b620004f8565b905082815260208101848484011115620005b957620005b86200047d565b5b620005c68482856200054d565b509392505050565b600082601f830112620005e657620005e562000478565b5b8151620005f884826020860162000583565b91505092915050565b6000806000606084860312156200061d576200061c6200046e565b5b600084015167ffffffffffffffff8111156200063e576200063d62000473565b5b6200064c86828701620005ce565b935050602084015167ffffffffffffffff81111562000670576200066f62000473565b5b6200067e86828701620005ce565b925050604084015167ffffffffffffffff811115620006a257620006a162000473565b5b620006b086828701620005ce565b9150509250925092565b600073ffffffffffffffffffffffffffffffffffffffff82169050919050565b6000620006e782620006ba565b9050919050565b620006f981620006da565b82525050565b6000602082019050620007166000830184620006ee565b92915050565b7f4e487b7100000000000000000000000000000000000000000000000000000000600052602260045260246000fd5b600060028204905060018216806200076457607f821691505b6020821081036200077a57620007796200071c565b5b50919050565b6146ea80620007906000396000f3fe608060405234801561001057600080fd5b50600436106101cf5760003560e01c8063715018a611610104578063b88d4fde116100a2578063d547741f11610071578063d547741f1461053d578063e8a3d48514610559578063e985e9c514610577578063f2fde38b146105a7576101cf565b8063b88d4fde146104b7578063c21b471b146104d3578063c87b56dd146104ef578063d53913931461051f576101cf565b8063938e3d7b116100de578063938e3d7b1461044357806395d89b411461045f578063a217fddf1461047d578063a22cb4651461049b576101cf565b8063715018a6146103eb5780638da5cb5b146103f557806391d1485414610413576101cf565b80632f2ff15d1161017157806345c177821161014b57806345c177821461033f5780635944c7531461036f5780636352211e1461038b57806370a08231146103bb576101cf565b80632f2ff15d146102eb57806336568abe1461030757806342842e0e14610323576101cf565b8063095ea7b3116101ad578063095ea7b31461025257806323b872dd1461026e578063248a9ca31461028a5780632a55205a146102ba576101cf565b806301ffc9a7146101d457806306fdde0314610204578063081812fc14610222575b600080fd5b6101ee60048036038101906101e99190612c85565b6105c3565b6040516101fb9190612ccd565b60405180910390f35b61020c6105d5565b6040516102199190612d81565b60405180910390f35b61023c60048036038101906102379190612dd9565b610667565b6040516102499190612e47565b60405180910390f35b61026c60048036038101906102679190612e8e565b6106ec565b005b61028860048036038101906102839190612ece565b610803565b005b6102a4600480360381019061029f9190612f57565b610863565b6040516102b19190612f93565b60405180910390f35b6102d460048036038101906102cf9190612fae565b610883565b6040516102e2929190612ffd565b60405180910390f35b61030560048036038101906103009190613026565b610a6d565b005b610321600480360381019061031c9190613026565b610a8e565b005b61033d60048036038101906103389190612ece565b610b11565b005b6103596004803603810190610354919061319b565b610b31565b6040516103669190612ccd565b60405180910390f35b6103896004803603810190610384919061323b565b610bd0565b005b6103a560048036038101906103a09190612dd9565b610c36565b6040516103b29190612e47565b60405180910390f35b6103d560048036038101906103d0919061328e565b610ce7565b6040516103e291906132bb565b60405180910390f35b6103f3610d9e565b005b6103fd610e26565b60405161040a9190612e47565b60405180910390f35b61042d60048036038101906104289190613026565b610e50565b60405161043a9190612ccd565b60405180910390f35b61045d600480360381019061045891906132d6565b610ebb565b005b610467610f1e565b6040516104749190612d81565b60405180910390f35b610485610fb0565b6040516104929190612f93565b60405180910390f35b6104b560048036038101906104b0919061334b565b610fb7565b005b6104d160048036038101906104cc919061342c565b610fcd565b005b6104ed60048036038101906104e891906134af565b61102f565b005b61050960048036038101906105049190612dd9565b61104b565b6040516105169190612d81565b60405180910390f35b61052761119c565b6040516105349190612f93565b60405180910390f35b61055760048036038101906105529190613026565b6111c0565b005b6105616111e1565b60405161056e9190612d81565b60405180910390f35b610591600480360381019061058c91906134ef565b611273565b60405161059e9190612ccd565b60405180910390f35b6105c160048036038101906105bc919061328e565b611307565b005b60006105ce826113fe565b9050919050565b6060600080546105e49061355e565b80601f01602080910402602001604051908101604052809291908181526020018280546106109061355e565b801561065d5780601f106106325761010080835404028352916020019161065d565b820191906000526020600020905b81548152906001019060200180831161064057829003601f168201915b5050505050905090565b600061067282611478565b6106b1576040517f08c379a00000000000000000000000000000000000000000000000000000000081526004016106a890613601565b60405180910390fd5b6004600083815260200190815260200160002060009054906101000a900473ffffffffffffffffffffffffffffffffffffffff169050919050565b60006106f782610c36565b90508073ffffffffffffffffffffffffffffffffffffffff168373ffffffffffffffffffffffffffffffffffffffff1603610767576040517f08c379a000000000000000000000000000000000000000000000000000000000815260040161075e90613693565b60405180910390fd5b8073ffffffffffffffffffffffffffffffffffffffff166107866114e4565b73ffffffffffffffffffffffffffffffffffffffff1614806107b557506107b4816107af6114e4565b611273565b5b6107f4576040517f08c379a00000000000000000000000000000000000000000000000000000000081526004016107eb90613725565b60405180910390fd5b6107fe83836114ec565b505050565b61081461080e6114e4565b826115a5565b610853576040517f08c379a000000000000000000000000000000000000000000000000000000000815260040161084a906137b7565b60405180910390fd5b61085e838383611683565b505050565b600060096000838152602001908152602001600020600101549050919050565b6000806000600860008681526020019081526020016000206040518060400160405290816000820160009054906101000a900473ffffffffffffffffffffffffffffffffffffffff1673ffffffffffffffffffffffffffffffffffffffff1673ffffffffffffffffffffffffffffffffffffffff1681526020016000820160149054906101000a90046bffffffffffffffffffffffff166bffffffffffffffffffffffff166bffffffffffffffffffffffff16815250509050600073ffffffffffffffffffffffffffffffffffffffff16816000015173ffffffffffffffffffffffffffffffffffffffff1603610a185760076040518060400160405290816000820160009054906101000a900473ffffffffffffffffffffffffffffffffffffffff1673ffffffffffffffffffffffffffffffffffffffff1673ffffffffffffffffffffffffffffffffffffffff1681526020016000820160149054906101000a90046bffffffffffffffffffffffff166bffffffffffffffffffffffff166bffffffffffffffffffffffff168152505090505b6000610a226118e9565b6bffffffffffffffffffffffff1682602001516bffffffffffffffffffffffff1686610a4e9190613806565b610a58919061388f565b90508160000151819350935050509250929050565b610a7682610863565b610a7f816118f3565b610a898383611907565b505050565b610a966114e4565b73ffffffffffffffffffffffffffffffffffffffff168173ffffffffffffffffffffffffffffffffffffffff1614610b03576040517f08c379a0000000000000000000000000000000000000000000000000000000008152600401610afa90613932565b60405180910390fd5b610b0d82826119e8565b5050565b610b2c83838360405180602001604052806000815250610fcd565b505050565b60007f9f2df0fed2c77648de5860a4cc508cd0818c85b8b8a1ab4ceeef8d981c8956a6610b5d816118f3565b6001835111610b98576040517ff2364a6b00000000000000000000000000000000000000000000000000000000815260040160405180910390fd5b6000610ba4600b611aca565b9050610bb0600b611ad8565b610bba8582611aee565b610bc48185611cc7565b60019250505092915050565b6000801b610bdd816118f3565b610be684611478565b610c25576040517f08c379a0000000000000000000000000000000000000000000000000000000008152600401610c1c906139ea565b60405180910390fd5b610c30848484611d3b565b50505050565b6000806002600084815260200190815260200160002060009054906101000a900473ffffffffffffffffffffffffffffffffffffffff169050600073ffffffffffffffffffffffffffffffffffffffff168173ffffffffffffffffffffffffffffffffffffffff1603610cde576040517f08c379a0000000000000000000000000000000000000000000000000000000008152600401610cd590613a7c565b60405180910390fd5b80915050919050565b60008073ffffffffffffffffffffffffffffffffffffffff168273ffffffffffffffffffffffffffffffffffffffff1603610d57576040517f08c379a0000000000000000000000000000000000000000000000000000000008152600401610d4e90613b0e565b60405180910390fd5b600360008373ffffffffffffffffffffffffffffffffffffffff1673ffffffffffffffffffffffffffffffffffffffff168152602001908152602001600020549050919050565b610da66114e4565b73ffffffffffffffffffffffffffffffffffffffff16610dc4610e26565b73ffffffffffffffffffffffffffffffffffffffff1614610e1a576040517f08c379a0000000000000000000000000000000000000000000000000000000008152600401610e1190613b7a565b60405180910390fd5b610e246000611ee2565b565b6000600a60009054906101000a900473ffffffffffffffffffffffffffffffffffffffff16905090565b60006009600084815260200190815260200160002060000160008373ffffffffffffffffffffffffffffffffffffffff1673ffffffffffffffffffffffffffffffffffffffff16815260200190815260200160002060009054906101000a900460ff16905092915050565b6000801b610ec8816118f3565b6001825111610f03576040517f542ea76200000000000000000000000000000000000000000000000000000000815260040160405180910390fd5b81600c9080519060200190610f19929190612b76565b505050565b606060018054610f2d9061355e565b80601f0160208091040260200160405190810160405280929190818152602001828054610f599061355e565b8015610fa65780601f10610f7b57610100808354040283529160200191610fa6565b820191906000526020600020905b815481529060010190602001808311610f8957829003601f168201915b5050505050905090565b6000801b81565b610fc9610fc26114e4565b8383611fa8565b5050565b610fde610fd86114e4565b836115a5565b61101d576040517f08c379a0000000000000000000000000000000000000000000000000000000008152600401611014906137b7565b60405180910390fd5b61102984848484612114565b50505050565b6000801b61103c816118f3565b6110468383612170565b505050565b606061105682611478565b611095576040517f08c379a000000000000000000000000000000000000000000000000000000000815260040161108c90613c0c565b60405180910390fd5b60006006600084815260200190815260200160002080546110b59061355e565b80601f01602080910402602001604051908101604052809291908181526020018280546110e19061355e565b801561112e5780601f106111035761010080835404028352916020019161112e565b820191906000526020600020905b81548152906001019060200180831161111157829003601f168201915b50505050509050600061113f612305565b90506000815103611154578192505050611197565b600082511115611189578082604051602001611171929190613c68565b60405160208183030381529060405292505050611197565b6111928461231c565b925050505b919050565b7f9f2df0fed2c77648de5860a4cc508cd0818c85b8b8a1ab4ceeef8d981c8956a681565b6111c982610863565b6111d2816118f3565b6111dc83836119e8565b505050565b6060600c80546111f09061355e565b80601f016020809104026020016040519081016040528092919081815260200182805461121c9061355e565b80156112695780601f1061123e57610100808354040283529160200191611269565b820191906000526020600020905b81548152906001019060200180831161124c57829003601f168201915b5050505050905090565b6000600560008473ffffffffffffffffffffffffffffffffffffffff1673ffffffffffffffffffffffffffffffffffffffff16815260200190815260200160002060008373ffffffffffffffffffffffffffffffffffffffff1673ffffffffffffffffffffffffffffffffffffffff16815260200190815260200160002060009054906101000a900460ff16905092915050565b61130f6114e4565b73ffffffffffffffffffffffffffffffffffffffff1661132d610e26565b73ffffffffffffffffffffffffffffffffffffffff1614611383576040517f08c379a000000000000000000000000000000000000000000000000000000000815260040161137a90613b7a565b60405180910390fd5b600073ffffffffffffffffffffffffffffffffffffffff168173ffffffffffffffffffffffffffffffffffffffff16036113f2576040517f08c379a00000000000000000000000000000000000000000000000000000000081526004016113e990613cfe565b60405180910390fd5b6113fb81611ee2565b50565b60007f7965db0b000000000000000000000000000000000000000000000000000000007bffffffffffffffffffffffffffffffffffffffffffffffffffffffff1916827bffffffffffffffffffffffffffffffffffffffffffffffffffffffff191614806114715750611470826123c3565b5b9050919050565b60008073ffffffffffffffffffffffffffffffffffffffff166002600084815260200190815260200160002060009054906101000a900473ffffffffffffffffffffffffffffffffffffffff1673ffffffffffffffffffffffffffffffffffffffff1614159050919050565b600033905090565b816004600083815260200190815260200160002060006101000a81548173ffffffffffffffffffffffffffffffffffffffff021916908373ffffffffffffffffffffffffffffffffffffffff160217905550808273ffffffffffffffffffffffffffffffffffffffff1661155f83610c36565b73ffffffffffffffffffffffffffffffffffffffff167f8c5be1e5ebec7d5bd14f71427d1e84f3dd0314c0f7b2291e5b200ac8c7c3b92560405160405180910390a45050565b60006115b082611478565b6115ef576040517f08c379a00000000000000000000000000000000000000000000000000000000081526004016115e690613d90565b60405180910390fd5b60006115fa83610c36565b90508073ffffffffffffffffffffffffffffffffffffffff168473ffffffffffffffffffffffffffffffffffffffff16148061163c575061163b8185611273565b5b8061167a57508373ffffffffffffffffffffffffffffffffffffffff1661166284610667565b73ffffffffffffffffffffffffffffffffffffffff16145b91505092915050565b8273ffffffffffffffffffffffffffffffffffffffff166116a382610c36565b73ffffffffffffffffffffffffffffffffffffffff16146116f9576040517f08c379a00000000000000000000000000000000000000000000000000000000081526004016116f090613e22565b60405180910390fd5b600073ffffffffffffffffffffffffffffffffffffffff168273ffffffffffffffffffffffffffffffffffffffff1603611768576040517f08c379a000000000000000000000000000000000000000000000000000000000815260040161175f90613eb4565b60405180910390fd5b61177383838361243d565b61177e6000826114ec565b6001600360008573ffffffffffffffffffffffffffffffffffffffff1673ffffffffffffffffffffffffffffffffffffffff16815260200190815260200160002060008282546117ce9190613ed4565b925050819055506001600360008473ffffffffffffffffffffffffffffffffffffffff1673ffffffffffffffffffffffffffffffffffffffff16815260200190815260200160002060008282546118259190613f08565b92505081905550816002600083815260200190815260200160002060006101000a81548173ffffffffffffffffffffffffffffffffffffffff021916908373ffffffffffffffffffffffffffffffffffffffff160217905550808273ffffffffffffffffffffffffffffffffffffffff168473ffffffffffffffffffffffffffffffffffffffff167fddf252ad1be2c89b69c2b068fc378daa952ba7f163c4a11628f55a4df523b3ef60405160405180910390a46118e4838383612442565b505050565b6000612710905090565b611904816118ff6114e4565b612447565b50565b6119118282610e50565b6119e45760016009600084815260200190815260200160002060000160008373ffffffffffffffffffffffffffffffffffffffff1673ffffffffffffffffffffffffffffffffffffffff16815260200190815260200160002060006101000a81548160ff0219169083151502179055506119896114e4565b73ffffffffffffffffffffffffffffffffffffffff168173ffffffffffffffffffffffffffffffffffffffff16837f2f8788117e7eff1d82e926ec794901d17c78024a50270940304540a733656f0d60405160405180910390a45b5050565b6119f28282610e50565b15611ac65760006009600084815260200190815260200160002060000160008373ffffffffffffffffffffffffffffffffffffffff1673ffffffffffffffffffffffffffffffffffffffff16815260200190815260200160002060006101000a81548160ff021916908315150217905550611a6b6114e4565b73ffffffffffffffffffffffffffffffffffffffff168173ffffffffffffffffffffffffffffffffffffffff16837ff6391f5c32d9c69d2a47ea670b442974b53935d1edc7fd64eb21e047a839171b60405160405180910390a45b5050565b600081600001549050919050565b6001816000016000828254019250508190555050565b600073ffffffffffffffffffffffffffffffffffffffff168273ffffffffffffffffffffffffffffffffffffffff1603611b5d576040517f08c379a0000000000000000000000000000000000000000000000000000000008152600401611b5490613faa565b60405180910390fd5b611b6681611478565b15611ba6576040517f08c379a0000000000000000000000000000000000000000000000000000000008152600401611b9d90614016565b60405180910390fd5b611bb26000838361243d565b6001600360008473ffffffffffffffffffffffffffffffffffffffff1673ffffffffffffffffffffffffffffffffffffffff1681526020019081526020016000206000828254611c029190613f08565b92505081905550816002600083815260200190815260200160002060006101000a81548173ffffffffffffffffffffffffffffffffffffffff021916908373ffffffffffffffffffffffffffffffffffffffff160217905550808273ffffffffffffffffffffffffffffffffffffffff16600073ffffffffffffffffffffffffffffffffffffffff167fddf252ad1be2c89b69c2b068fc378daa952ba7f163c4a11628f55a4df523b3ef60405160405180910390a4611cc360008383612442565b5050565b611cd082611478565b611d0f576040517f08c379a0000000000000000000000000000000000000000000000000000000008152600401611d06906140a8565b60405180910390fd5b80600660008481526020019081526020016000209080519060200190611d36929190612b76565b505050565b611d436118e9565b6bffffffffffffffffffffffff16816bffffffffffffffffffffffff161115611da1576040517f08c379a0000000000000000000000000000000000000000000000000000000008152600401611d989061413a565b60405180910390fd5b600073ffffffffffffffffffffffffffffffffffffffff168273ffffffffffffffffffffffffffffffffffffffff1603611e10576040517f08c379a0000000000000000000000000000000000000000000000000000000008152600401611e07906141a6565b60405180910390fd5b60405180604001604052808373ffffffffffffffffffffffffffffffffffffffff168152602001826bffffffffffffffffffffffff168152506008600085815260200190815260200160002060008201518160000160006101000a81548173ffffffffffffffffffffffffffffffffffffffff021916908373ffffffffffffffffffffffffffffffffffffffff16021790555060208201518160000160146101000a8154816bffffffffffffffffffffffff02191690836bffffffffffffffffffffffff160217905550905050505050565b6000600a60009054906101000a900473ffffffffffffffffffffffffffffffffffffffff16905081600a60006101000a81548173ffffffffffffffffffffffffffffffffffffffff021916908373ffffffffffffffffffffffffffffffffffffffff1602179055508173ffffffffffffffffffffffffffffffffffffffff168173ffffffffffffffffffffffffffffffffffffffff167f8be0079c531659141344cd1fd0a4f28419497f9722a3daafe3b4186f6b6457e060405160405180910390a35050565b8173ffffffffffffffffffffffffffffffffffffffff168373ffffffffffffffffffffffffffffffffffffffff1603612016576040517f08c379a000000000000000000000000000000000000000000000000000000000815260040161200d90614212565b60405180910390fd5b80600560008573ffffffffffffffffffffffffffffffffffffffff1673ffffffffffffffffffffffffffffffffffffffff16815260200190815260200160002060008473ffffffffffffffffffffffffffffffffffffffff1673ffffffffffffffffffffffffffffffffffffffff16815260200190815260200160002060006101000a81548160ff0219169083151502179055508173ffffffffffffffffffffffffffffffffffffffff168373ffffffffffffffffffffffffffffffffffffffff167f17307eab39ab6107e8899845ad3d59bd9653f200f220920489ca2b5937696c31836040516121079190612ccd565b60405180910390a3505050565b61211f848484611683565b61212b848484846124e4565b61216a576040517f08c379a0000000000000000000000000000000000000000000000000000000008152600401612161906142a4565b60405180910390fd5b50505050565b6121786118e9565b6bffffffffffffffffffffffff16816bffffffffffffffffffffffff1611156121d6576040517f08c379a00000000000000000000000000000000000000000000000000000000081526004016121cd9061413a565b60405180910390fd5b600073ffffffffffffffffffffffffffffffffffffffff168273ffffffffffffffffffffffffffffffffffffffff1603612245576040517f08c379a000000000000000000000000000000000000000000000000000000000815260040161223c90614310565b60405180910390fd5b60405180604001604052808373ffffffffffffffffffffffffffffffffffffffff168152602001826bffffffffffffffffffffffff16815250600760008201518160000160006101000a81548173ffffffffffffffffffffffffffffffffffffffff021916908373ffffffffffffffffffffffffffffffffffffffff16021790555060208201518160000160146101000a8154816bffffffffffffffffffffffff02191690836bffffffffffffffffffffffff1602179055509050505050565b606060405180602001604052806000815250905090565b606061232782611478565b612366576040517f08c379a000000000000000000000000000000000000000000000000000000000815260040161235d906143a2565b60405180910390fd5b6000612370612305565b9050600081511161239057604051806020016040528060008152506123bb565b8061239a8461266b565b6040516020016123ab929190613c68565b6040516020818303038152906040525b915050919050565b60007f2a55205a000000000000000000000000000000000000000000000000000000007bffffffffffffffffffffffffffffffffffffffffffffffffffffffff1916827bffffffffffffffffffffffffffffffffffffffffffffffffffffffff191614806124365750612435826127cb565b5b9050919050565b505050565b505050565b6124518282610e50565b6124e0576124768173ffffffffffffffffffffffffffffffffffffffff1660146128ad565b6124848360001c60206128ad565b60405160200161249592919061445a565b6040516020818303038152906040526040517f08c379a00000000000000000000000000000000000000000000000000000000081526004016124d79190612d81565b60405180910390fd5b5050565b60006125058473ffffffffffffffffffffffffffffffffffffffff16612ae9565b1561265e578373ffffffffffffffffffffffffffffffffffffffff1663150b7a0261252e6114e4565b8786866040518563ffffffff1660e01b815260040161255094939291906144e9565b6020604051808303816000875af192505050801561258c57506040513d601f19601f82011682018060405250810190612589919061454a565b60015b61260e573d80600081146125bc576040519150601f19603f3d011682016040523d82523d6000602084013e6125c1565b606091505b506000815103612606576040517f08c379a00000000000000000000000000000000000000000000000000000000081526004016125fd906142a4565b60405180910390fd5b805181602001fd5b63150b7a0260e01b7bffffffffffffffffffffffffffffffffffffffffffffffffffffffff1916817bffffffffffffffffffffffffffffffffffffffffffffffffffffffff191614915050612663565b600190505b949350505050565b6060600082036126b2576040518060400160405280600181526020017f300000000000000000000000000000000000000000000000000000000000000081525090506127c6565b600082905060005b600082146126e45780806126cd90614577565b915050600a826126dd919061388f565b91506126ba565b60008167ffffffffffffffff811115612700576126ff613070565b5b6040519080825280601f01601f1916602001820160405280156127325781602001600182028036833780820191505090505b5090505b600085146127bf5760018261274b9190613ed4565b9150600a8561275a91906145bf565b60306127669190613f08565b60f81b81838151811061277c5761277b6145f0565b5b60200101907effffffffffffffffffffffffffffffffffffffffffffffffffffffffffffff1916908160001a905350600a856127b8919061388f565b9450612736565b8093505050505b919050565b60007f80ac58cd000000000000000000000000000000000000000000000000000000007bffffffffffffffffffffffffffffffffffffffffffffffffffffffff1916827bffffffffffffffffffffffffffffffffffffffffffffffffffffffff1916148061289657507f5b5e139f000000000000000000000000000000000000000000000000000000007bffffffffffffffffffffffffffffffffffffffffffffffffffffffff1916827bffffffffffffffffffffffffffffffffffffffffffffffffffffffff1916145b806128a657506128a582612b0c565b5b9050919050565b6060600060028360026128c09190613806565b6128ca9190613f08565b67ffffffffffffffff8111156128e3576128e2613070565b5b6040519080825280601f01601f1916602001820160405280156129155781602001600182028036833780820191505090505b5090507f30000000000000000000000000000000000000000000000000000000000000008160008151811061294d5761294c6145f0565b5b60200101907effffffffffffffffffffffffffffffffffffffffffffffffffffffffffffff1916908160001a9053507f7800000000000000000000000000000000000000000000000000000000000000816001815181106129b1576129b06145f0565b5b60200101907effffffffffffffffffffffffffffffffffffffffffffffffffffffffffffff1916908160001a905350600060018460026129f19190613806565b6129fb9190613f08565b90505b6001811115612a9b577f3031323334353637383961626364656600000000000000000000000000000000600f861660108110612a3d57612a3c6145f0565b5b1a60f81b828281518110612a5457612a536145f0565b5b60200101907effffffffffffffffffffffffffffffffffffffffffffffffffffffffffffff1916908160001a905350600485901c945080612a949061461f565b90506129fe565b5060008414612adf576040517f08c379a0000000000000000000000000000000000000000000000000000000008152600401612ad690614694565b60405180910390fd5b8091505092915050565b6000808273ffffffffffffffffffffffffffffffffffffffff163b119050919050565b60007f01ffc9a7000000000000000000000000000000000000000000000000000000007bffffffffffffffffffffffffffffffffffffffffffffffffffffffff1916827bffffffffffffffffffffffffffffffffffffffffffffffffffffffff1916149050919050565b828054612b829061355e565b90600052602060002090601f016020900481019282612ba45760008555612beb565b82601f10612bbd57805160ff1916838001178555612beb565b82800160010185558215612beb579182015b82811115612bea578251825591602001919060010190612bcf565b5b509050612bf89190612bfc565b5090565b5b80821115612c15576000816000905550600101612bfd565b5090565b6000604051905090565b600080fd5b600080fd5b60007fffffffff0000000000000000000000000000000000000000000000000000000082169050919050565b612c6281612c2d565b8114612c6d57600080fd5b50565b600081359050612c7f81612c59565b92915050565b600060208284031215612c9b57612c9a612c23565b5b6000612ca984828501612c70565b91505092915050565b60008115159050919050565b612cc781612cb2565b82525050565b6000602082019050612ce26000830184612cbe565b92915050565b600081519050919050565b600082825260208201905092915050565b60005b83811015612d22578082015181840152602081019050612d07565b83811115612d31576000848401525b50505050565b6000601f19601f8301169050919050565b6000612d5382612ce8565b612d5d8185612cf3565b9350612d6d818560208601612d04565b612d7681612d37565b840191505092915050565b60006020820190508181036000830152612d9b8184612d48565b905092915050565b6000819050919050565b612db681612da3565b8114612dc157600080fd5b50565b600081359050612dd381612dad565b92915050565b600060208284031215612def57612dee612c23565b5b6000612dfd84828501612dc4565b91505092915050565b600073ffffffffffffffffffffffffffffffffffffffff82169050919050565b6000612e3182612e06565b9050919050565b612e4181612e26565b82525050565b6000602082019050612e5c6000830184612e38565b92915050565b612e6b81612e26565b8114612e7657600080fd5b50565b600081359050612e8881612e62565b92915050565b60008060408385031215612ea557612ea4612c23565b5b6000612eb385828601612e79565b9250506020612ec485828601612dc4565b9150509250929050565b600080600060608486031215612ee757612ee6612c23565b5b6000612ef586828701612e79565b9350506020612f0686828701612e79565b9250506040612f1786828701612dc4565b9150509250925092565b6000819050919050565b612f3481612f21565b8114612f3f57600080fd5b50565b600081359050612f5181612f2b565b92915050565b600060208284031215612f6d57612f6c612c23565b5b6000612f7b84828501612f42565b91505092915050565b612f8d81612f21565b82525050565b6000602082019050612fa86000830184612f84565b92915050565b60008060408385031215612fc557612fc4612c23565b5b6000612fd385828601612dc4565b9250506020612fe485828601612dc4565b9150509250929050565b612ff781612da3565b82525050565b60006040820190506130126000830185612e38565b61301f6020830184612fee565b9392505050565b6000806040838503121561303d5761303c612c23565b5b600061304b85828601612f42565b925050602061305c85828601612e79565b9150509250929050565b600080fd5b600080fd5b7f4e487b7100000000000000000000000000000000000000000000000000000000600052604160045260246000fd5b6130a882612d37565b810181811067ffffffffffffffff821117156130c7576130c6613070565b5b80604052505050565b60006130da612c19565b90506130e6828261309f565b919050565b600067ffffffffffffffff82111561310657613105613070565b5b61310f82612d37565b9050602081019050919050565b82818337600083830152505050565b600061313e613139846130eb565b6130d0565b90508281526020810184848401111561315a5761315961306b565b5b61316584828561311c565b509392505050565b600082601f83011261318257613181613066565b5b813561319284826020860161312b565b91505092915050565b600080604083850312156131b2576131b1612c23565b5b60006131c085828601612e79565b925050602083013567ffffffffffffffff8111156131e1576131e0612c28565b5b6131ed8582860161316d565b9150509250929050565b60006bffffffffffffffffffffffff82169050919050565b613218816131f7565b811461322357600080fd5b50565b6000813590506132358161320f565b92915050565b60008060006060848603121561325457613253612c23565b5b600061326286828701612dc4565b935050602061327386828701612e79565b925050604061328486828701613226565b9150509250925092565b6000602082840312156132a4576132a3612c23565b5b60006132b284828501612e79565b91505092915050565b60006020820190506132d06000830184612fee565b92915050565b6000602082840312156132ec576132eb612c23565b5b600082013567ffffffffffffffff81111561330a57613309612c28565b5b6133168482850161316d565b91505092915050565b61332881612cb2565b811461333357600080fd5b50565b6000813590506133458161331f565b92915050565b6000806040838503121561336257613361612c23565b5b600061337085828601612e79565b925050602061338185828601613336565b9150509250929050565b600067ffffffffffffffff8211156133a6576133a5613070565b5b6133af82612d37565b9050602081019050919050565b60006133cf6133ca8461338b565b6130d0565b9050828152602081018484840111156133eb576133ea61306b565b5b6133f684828561311c565b509392505050565b600082601f83011261341357613412613066565b5b81356134238482602086016133bc565b91505092915050565b6000806000806080858703121561344657613445612c23565b5b600061345487828801612e79565b945050602061346587828801612e79565b935050604061347687828801612dc4565b925050606085013567ffffffffffffffff81111561349757613496612c28565b5b6134a3878288016133fe565b91505092959194509250565b600080604083850312156134c6576134c5612c23565b5b60006134d485828601612e79565b92505060206134e585828601613226565b9150509250929050565b6000806040838503121561350657613505612c23565b5b600061351485828601612e79565b925050602061352585828601612e79565b9150509250929050565b7f4e487b7100000000000000000000000000000000000000000000000000000000600052602260045260246000fd5b6000600282049050600182168061357657607f821691505b6020821081036135895761358861352f565b5b50919050565b7f4552433732313a20617070726f76656420717565727920666f72206e6f6e657860008201527f697374656e7420746f6b656e0000000000000000000000000000000000000000602082015250565b60006135eb602c83612cf3565b91506135f68261358f565b604082019050919050565b6000602082019050818103600083015261361a816135de565b9050919050565b7f4552433732313a20617070726f76616c20746f2063757272656e74206f776e6560008201527f7200000000000000000000000000000000000000000000000000000000000000602082015250565b600061367d602183612cf3565b915061368882613621565b604082019050919050565b600060208201905081810360008301526136ac81613670565b9050919050565b7f4552433732313a20617070726f76652063616c6c6572206973206e6f74206f7760008201527f6e6572206e6f7220617070726f76656420666f7220616c6c0000000000000000602082015250565b600061370f603883612cf3565b915061371a826136b3565b604082019050919050565b6000602082019050818103600083015261373e81613702565b9050919050565b7f4552433732313a207472616e736665722063616c6c6572206973206e6f74206f60008201527f776e6572206e6f7220617070726f766564000000000000000000000000000000602082015250565b60006137a1603183612cf3565b91506137ac82613745565b604082019050919050565b600060208201905081810360008301526137d081613794565b9050919050565b7f4e487b7100000000000000000000000000000000000000000000000000000000600052601160045260246000fd5b600061381182612da3565b915061381c83612da3565b9250817fffffffffffffffffffffffffffffffffffffffffffffffffffffffffffffffff0483118215151615613855576138546137d7565b5b828202905092915050565b7f4e487b7100000000000000000000000000000000000000000000000000000000600052601260045260246000fd5b600061389a82612da3565b91506138a583612da3565b9250826138b5576138b4613860565b5b828204905092915050565b7f416363657373436f6e74726f6c3a2063616e206f6e6c792072656e6f756e636560008201527f20726f6c657320666f722073656c660000000000000000000000000000000000602082015250565b600061391c602f83612cf3565b9150613927826138c0565b604082019050919050565b6000602082019050818103600083015261394b8161390f565b9050919050565b7f4552433732314d696e7461626c65526f79616c7479457874656e643a2073657460008201527f546f6b656e526f79616c747920666f72206e6f6e6578697374656e7420746f6b60208201527f656e000000000000000000000000000000000000000000000000000000000000604082015250565b60006139d4604283612cf3565b91506139df82613952565b606082019050919050565b60006020820190508181036000830152613a03816139c7565b9050919050565b7f4552433732313a206f776e657220717565727920666f72206e6f6e657869737460008201527f656e7420746f6b656e0000000000000000000000000000000000000000000000602082015250565b6000613a66602983612cf3565b9150613a7182613a0a565b604082019050919050565b60006020820190508181036000830152613a9581613a59565b9050919050565b7f4552433732313a2062616c616e636520717565727920666f7220746865207a6560008201527f726f206164647265737300000000000000000000000000000000000000000000602082015250565b6000613af8602a83612cf3565b9150613b0382613a9c565b604082019050919050565b60006020820190508181036000830152613b2781613aeb565b9050919050565b7f4f776e61626c653a2063616c6c6572206973206e6f7420746865206f776e6572600082015250565b6000613b64602083612cf3565b9150613b6f82613b2e565b602082019050919050565b60006020820190508181036000830152613b9381613b57565b9050919050565b7f45524337323155524953746f726167653a2055524920717565727920666f722060008201527f6e6f6e6578697374656e7420746f6b656e000000000000000000000000000000602082015250565b6000613bf6603183612cf3565b9150613c0182613b9a565b604082019050919050565b60006020820190508181036000830152613c2581613be9565b9050919050565b600081905092915050565b6000613c4282612ce8565b613c4c8185613c2c565b9350613c5c818560208601612d04565b80840191505092915050565b6000613c748285613c37565b9150613c808284613c37565b91508190509392505050565b7f4f776e61626c653a206e6577206f776e657220697320746865207a65726f206160008201527f6464726573730000000000000000000000000000000000000000000000000000602082015250565b6000613ce8602683612cf3565b9150613cf382613c8c565b604082019050919050565b60006020820190508181036000830152613d1781613cdb565b9050919050565b7f4552433732313a206f70657261746f7220717565727920666f72206e6f6e657860008201527f697374656e7420746f6b656e0000000000000000000000000000000000000000602082015250565b6000613d7a602c83612cf3565b9150613d8582613d1e565b604082019050919050565b60006020820190508181036000830152613da981613d6d565b9050919050565b7f4552433732313a207472616e736665722066726f6d20696e636f72726563742060008201527f6f776e6572000000000000000000000000000000000000000000000000000000602082015250565b6000613e0c602583612cf3565b9150613e1782613db0565b604082019050919050565b60006020820190508181036000830152613e3b81613dff565b9050919050565b7f4552433732313a207472616e7366657220746f20746865207a65726f2061646460008201527f7265737300000000000000000000000000000000000000000000000000000000602082015250565b6000613e9e602483612cf3565b9150613ea982613e42565b604082019050919050565b60006020820190508181036000830152613ecd81613e91565b9050919050565b6000613edf82612da3565b9150613eea83612da3565b925082821015613efd57613efc6137d7565b5b828203905092915050565b6000613f1382612da3565b9150613f1e83612da3565b9250827fffffffffffffffffffffffffffffffffffffffffffffffffffffffffffffffff03821115613f5357613f526137d7565b5b828201905092915050565b7f4552433732313a206d696e7420746f20746865207a65726f2061646472657373600082015250565b6000613f94602083612cf3565b9150613f9f82613f5e565b602082019050919050565b60006020820190508181036000830152613fc381613f87565b9050919050565b7f4552433732313a20746f6b656e20616c7265616479206d696e74656400000000600082015250565b6000614000601c83612cf3565b915061400b82613fca565b602082019050919050565b6000602082019050818103600083015261402f81613ff3565b9050919050565b7f45524337323155524953746f726167653a2055524920736574206f66206e6f6e60008201527f6578697374656e7420746f6b656e000000000000000000000000000000000000602082015250565b6000614092602e83612cf3565b915061409d82614036565b604082019050919050565b600060208201905081810360008301526140c181614085565b9050919050565b7f455243323938313a20726f79616c7479206665652077696c6c2065786365656460008201527f2073616c65507269636500000000000000000000000000000000000000000000602082015250565b6000614124602a83612cf3565b915061412f826140c8565b604082019050919050565b6000602082019050818103600083015261415381614117565b9050919050565b7f455243323938313a20496e76616c696420706172616d65746572730000000000600082015250565b6000614190601b83612cf3565b915061419b8261415a565b602082019050919050565b600060208201905081810360008301526141bf81614183565b9050919050565b7f4552433732313a20617070726f766520746f2063616c6c657200000000000000600082015250565b60006141fc601983612cf3565b9150614207826141c6565b602082019050919050565b6000602082019050818103600083015261422b816141ef565b9050919050565b7f4552433732313a207472616e7366657220746f206e6f6e20455243373231526560008201527f63656976657220696d706c656d656e7465720000000000000000000000000000602082015250565b600061428e603283612cf3565b915061429982614232565b604082019050919050565b600060208201905081810360008301526142bd81614281565b9050919050565b7f455243323938313a20696e76616c696420726563656976657200000000000000600082015250565b60006142fa601983612cf3565b9150614305826142c4565b602082019050919050565b60006020820190508181036000830152614329816142ed565b9050919050565b7f4552433732314d657461646174613a2055524920717565727920666f72206e6f60008201527f6e6578697374656e7420746f6b656e0000000000000000000000000000000000602082015250565b600061438c602f83612cf3565b915061439782614330565b604082019050919050565b600060208201905081810360008301526143bb8161437f565b9050919050565b7f416363657373436f6e74726f6c3a206163636f756e7420000000000000000000600082015250565b60006143f8601783613c2c565b9150614403826143c2565b601782019050919050565b7f206973206d697373696e6720726f6c6520000000000000000000000000000000600082015250565b6000614444601183613c2c565b915061444f8261440e565b601182019050919050565b6000614465826143eb565b91506144718285613c37565b915061447c82614437565b91506144888284613c37565b91508190509392505050565b600081519050919050565b600082825260208201905092915050565b60006144bb82614494565b6144c5818561449f565b93506144d5818560208601612d04565b6144de81612d37565b840191505092915050565b60006080820190506144fe6000830187612e38565b61450b6020830186612e38565b6145186040830185612fee565b818103606083015261452a81846144b0565b905095945050505050565b60008151905061454481612c59565b92915050565b6000602082840312156145605761455f612c23565b5b600061456e84828501614535565b91505092915050565b600061458282612da3565b91507fffffffffffffffffffffffffffffffffffffffffffffffffffffffffffffffff82036145b4576145b36137d7565b5b600182019050919050565b60006145ca82612da3565b91506145d583612da3565b9250826145e5576145e4613860565b5b828206905092915050565b7f4e487b7100000000000000000000000000000000000000000000000000000000600052603260045260246000fd5b600061462a82612da3565b91506000820361463d5761463c6137d7565b5b600182039050919050565b7f537472696e67733a20686578206c656e67746820696e73756666696369656e74600082015250565b600061467e602083612cf3565b915061468982614648565b602082019050919050565b600060208201905081810360008301526146ad81614671565b905091905056fea2646970667358221220ce93972e1fcc9af9501975649d55fd5820c2c73ffdac88e28133e5fe101eb4bd64736f6c634300080d0033",
  "immutableReferences": {},
  "source": "// SPDX-License-Identifier: MIT\npragma solidity 0.8.13;\n\nimport \"@openzeppelin/contracts/access/AccessControl.sol\";\nimport \"@openzeppelin/contracts/access/Ownable.sol\";\nimport \"@openzeppelin/contracts/token/ERC721/extensions/ERC721URIStorage.sol\";\nimport \"@openzeppelin/contracts/token/common/ERC2981.sol\";\nimport \"@openzeppelin/contracts/utils/Counters.sol\";\n\n/// Name of contract cannot be empty.\nerror NameIsEmpty();\n/// Token URI of token to be minted cannot be empty.\nerror TokenURIIsEmpty();\n/// ContractURI cannot be empty;\nerror ContractURIIsEmpty();\n\ncontract ERC721MintableRoyaltyExtend is ERC721URIStorage, ERC2981, AccessControl, Ownable {\n    using Counters for Counters.Counter;\n    /// @dev Counter auto-incrementating NFT tokenIds, default: 0\n    Counters.Counter private _tokenIdCounter;\n    string private _contractURI;\n\n    bytes32 public constant MINTER_ROLE = keccak256(\"MINTER_ROLE\");\n\n    event ContractDeployed(address contractAddress_);\n\n    /// @notice The account deploying the contract will have the minter role and will be able to grand other accounts.\n    /// @notice The contract is built with only a name & a symbol as metadata. Each NFT metadata will be given at mint time.\n    constructor(\n        string memory name_,\n        string memory symbol_,\n        string memory contractURI_\n    ) ERC721(name_, symbol_) {\n        if (!(bytes(name_).length > 1)) {\n            revert NameIsEmpty();\n        }\n        _contractURI = contractURI_;\n        _grantRole(DEFAULT_ADMIN_ROLE, _msgSender());\n        _grantRole(MINTER_ROLE, _msgSender());\n\n        emit ContractDeployed(address(this));\n    }\n\n    /// @notice NFT minting with metadata i.e tokenURI\n    /// @notice Each mint will increment the tokenId, starting from 0\n    ///#if_succeeds old(balanceOf(to_)) + 1 == balanceOf(to_);\n    function mintWithTokenURI(address to_, string memory tokenURI_)\n        public\n        onlyRole(MINTER_ROLE)\n        returns (bool)\n    {\n        if (!(bytes(tokenURI_).length > 1)) {\n            revert TokenURIIsEmpty();\n        }\n        uint256 tokenId = _tokenIdCounter.current();\n        _tokenIdCounter.increment();\n        _mint(to_, tokenId);\n        _setTokenURI(tokenId, tokenURI_);\n        return true;\n    }\n\n    ///#if_succeeds let receiver, _ := royaltyInfo(0, 10000) in receiver == receiver_;\n    function setRoyalties(address receiver_, uint96 feeNumerator_)\n        external\n        onlyRole(DEFAULT_ADMIN_ROLE)\n    {\n        _setDefaultRoyalty(receiver_, feeNumerator_);\n    }\n\n    function contractURI() public view returns (string memory) {\n        return _contractURI;\n    }\n\n    ///#if_succeeds let receiver, _ := royaltyInfo(tokenId_, 10000) in receiver == receiver_;\n    function setTokenRoyalty(uint256 tokenId_, address receiver_, uint96 feeNumerator_)\n        external\n        onlyRole(DEFAULT_ADMIN_ROLE)\n    {\n        require(_exists(tokenId_), \"ERC721MintableRoyaltyExtend: setTokenRoyalty for nonexistent token\");\n\n        _setTokenRoyalty(tokenId_, receiver_, feeNumerator_);\n    }\n\n    ///#if_succeeds (keccak256(abi.encodePacked((_contractURI))) == keccak256(abi.encodePacked((contractURI_))));\n    function setContractURI(string memory contractURI_)\n        public\n        onlyRole(DEFAULT_ADMIN_ROLE)\n    {\n        if (!(bytes(contractURI_).length > 1)) {\n            revert ContractURIIsEmpty();\n        }\n        _contractURI = contractURI_;\n    }\n\n    // Overrides\n\n    function supportsInterface(bytes4 interfaceId_)\n        public\n        view\n        override(ERC721, ERC2981, AccessControl)\n        returns (bool)\n    {\n        return super.supportsInterface(interfaceId_);\n    }\n}\n",
  "sourcePath": "/mnt/d/My Documents/WorkSpace/consensys-sdk-contracts/contracts/ERC721MintableRoyaltyExtend.sol",
  "compiler": {
    "name": "solc",
    "version": "0.8.13+commit.abaa5c0e.Emscripten.clang"
  },
  "schemaVersion": "3.4.13",
  "updatedAt": "2023-03-09T05:59:29.229Z",
  "devdoc": {
    "kind": "dev",
    "methods": {
      "approve(address,uint256)": {
        "details": "See {IERC721-approve}."
      },
      "balanceOf(address)": {
        "details": "See {IERC721-balanceOf}."
      },
      "getApproved(uint256)": {
        "details": "See {IERC721-getApproved}."
      },
      "getRoleAdmin(bytes32)": {
        "details": "Returns the admin role that controls `role`. See {grantRole} and {revokeRole}. To change a role's admin, use {_setRoleAdmin}."
      },
      "grantRole(bytes32,address)": {
        "details": "Grants `role` to `account`. If `account` had not been already granted `role`, emits a {RoleGranted} event. Requirements: - the caller must have ``role``'s admin role."
      },
      "hasRole(bytes32,address)": {
        "details": "Returns `true` if `account` has been granted `role`."
      },
      "isApprovedForAll(address,address)": {
        "details": "See {IERC721-isApprovedForAll}."
      },
      "name()": {
        "details": "See {IERC721Metadata-name}."
      },
      "owner()": {
        "details": "Returns the address of the current owner."
      },
      "ownerOf(uint256)": {
        "details": "See {IERC721-ownerOf}."
      },
      "renounceOwnership()": {
        "details": "Leaves the contract without owner. It will not be possible to call `onlyOwner` functions anymore. Can only be called by the current owner. NOTE: Renouncing ownership will leave the contract without an owner, thereby removing any functionality that is only available to the owner."
      },
      "renounceRole(bytes32,address)": {
        "details": "Revokes `role` from the calling account. Roles are often managed via {grantRole} and {revokeRole}: this function's purpose is to provide a mechanism for accounts to lose their privileges if they are compromised (such as when a trusted device is misplaced). If the calling account had been revoked `role`, emits a {RoleRevoked} event. Requirements: - the caller must be `account`."
      },
      "revokeRole(bytes32,address)": {
        "details": "Revokes `role` from `account`. If `account` had been granted `role`, emits a {RoleRevoked} event. Requirements: - the caller must have ``role``'s admin role."
      },
      "royaltyInfo(uint256,uint256)": {
        "details": "Returns how much royalty is owed and to whom, based on a sale price that may be denominated in any unit of exchange. The royalty amount is denominated and should be paid in that same unit of exchange."
      },
      "safeTransferFrom(address,address,uint256)": {
        "details": "See {IERC721-safeTransferFrom}."
      },
      "safeTransferFrom(address,address,uint256,bytes)": {
        "details": "See {IERC721-safeTransferFrom}."
      },
      "setApprovalForAll(address,bool)": {
        "details": "See {IERC721-setApprovalForAll}."
      },
      "symbol()": {
        "details": "See {IERC721Metadata-symbol}."
      },
      "tokenURI(uint256)": {
        "details": "See {IERC721Metadata-tokenURI}."
      },
      "transferFrom(address,address,uint256)": {
        "details": "See {IERC721-transferFrom}."
      },
      "transferOwnership(address)": {
        "details": "Transfers ownership of the contract to a new account (`newOwner`). Can only be called by the current owner."
      }
    },
    "stateVariables": {
      "_tokenIdCounter": {
        "details": "Counter auto-incrementating NFT tokenIds, default: 0"
      }
    },
    "version": 1
  },
  "userdoc": {
    "errors": {
      "ContractURIIsEmpty()": [
        {
          "notice": "ContractURI cannot be empty;"
        }
      ],
      "NameIsEmpty()": [
        {
          "notice": "Name of contract cannot be empty."
        }
      ],
      "TokenURIIsEmpty()": [
        {
          "notice": "Token URI of token to be minted cannot be empty."
        }
      ]
    },
    "kind": "user",
    "methods": {
      "constructor": {
        "notice": "The account deploying the contract will have the minter role and will be able to grand other accounts.The contract is built with only a name & a symbol as metadata. Each NFT metadata will be given at mint time."
      },
      "mintWithTokenURI(address,string)": {
        "notice": "NFT minting with metadata i.e tokenURIEach mint will increment the tokenId, starting from 0 #if_succeeds old(balanceOf(to_)) + 1 == balanceOf(to_);"
      },
      "setContractURI(string)": {
        "notice": "#if_succeeds (keccak256(abi.encodePacked((_contractURI))) == keccak256(abi.encodePacked((contractURI_))));"
      },
      "setRoyalties(address,uint96)": {
        "notice": "#if_succeeds let receiver, _ := royaltyInfo(0, 10000) in receiver == receiver_;"
      },
      "setTokenRoyalty(uint256,address,uint96)": {
        "notice": "#if_succeeds let receiver, _ := royaltyInfo(tokenId_, 10000) in receiver == receiver_;"
      }
    },
    "version": 1
  },
  "db": {
    "callBytecode": {
      "id": "0xbaf62263aae28240960677def9ee378e431d8dccd4b0943b57304ccb1f979ded"
    },
    "createBytecode": {
      "id": "0x0964eb7b3b703983e1966f6ed423a76218d698295a9080e6942fa1b4b1f98daf"
    },
    "contract": {
      "id": "0x5778a79f29b153274249d4fe10c1942dd97110a070521fff7290b7db3a3c693f"
    }
  }
}